{
  "_format": "hh-sol-artifact-1",
  "contractName": "CashierWithdraw",
  "sourceName": "contracts/CashierWithdraw.sol",
  "abi": [
    {
      "inputs": [
        {
          "internalType": "address",
          "name": "defaultAdmin",
          "type": "address"
        },
        {
          "internalType": "address",
          "name": "signer",
          "type": "address"
        },
        {
          "internalType": "address",
          "name": "_payoutTreasury",
          "type": "address"
        },
        {
          "internalType": "address",
          "name": "_payoutToken",
          "type": "address"
        }
      ],
      "stateMutability": "nonpayable",
      "type": "constructor"
    },
    {
      "inputs": [],
      "name": "AccessControlBadConfirmation",
      "type": "error"
    },
    {
      "inputs": [
        {
          "internalType": "address",
          "name": "account",
          "type": "address"
        },
        {
          "internalType": "bytes32",
          "name": "neededRole",
          "type": "bytes32"
        }
      ],
      "name": "AccessControlUnauthorizedAccount",
      "type": "error"
    },
    {
      "inputs": [
        {
          "internalType": "address",
          "name": "target",
          "type": "address"
        }
      ],
      "name": "AddressEmptyCode",
      "type": "error"
    },
    {
      "inputs": [
        {
          "internalType": "address",
          "name": "account",
          "type": "address"
        }
      ],
      "name": "AddressInsufficientBalance",
      "type": "error"
    },
    {
      "inputs": [],
      "name": "ECDSAInvalidSignature",
      "type": "error"
    },
    {
      "inputs": [
        {
          "internalType": "uint256",
          "name": "length",
          "type": "uint256"
        }
      ],
      "name": "ECDSAInvalidSignatureLength",
      "type": "error"
    },
    {
      "inputs": [
        {
          "internalType": "bytes32",
          "name": "s",
          "type": "bytes32"
        }
      ],
      "name": "ECDSAInvalidSignatureS",
      "type": "error"
    },
    {
      "inputs": [],
      "name": "EnforcedPause",
      "type": "error"
    },
    {
      "inputs": [],
      "name": "ExpectedPause",
      "type": "error"
    },
    {
      "inputs": [],
      "name": "FailedInnerCall",
      "type": "error"
    },
    {
      "inputs": [],
      "name": "InputParameterLengthMismatch",
      "type": "error"
    },
    {
      "inputs": [],
      "name": "InvalidSignature",
      "type": "error"
    },
    {
      "inputs": [],
      "name": "ReentrancyGuardReentrantCall",
      "type": "error"
    },
    {
      "inputs": [
        {
          "internalType": "address",
          "name": "token",
          "type": "address"
        }
      ],
      "name": "SafeERC20FailedOperation",
      "type": "error"
    },
    {
      "inputs": [],
      "name": "WithdrawalAlreadyPaidOut",
      "type": "error"
    },
    {
      "inputs": [],
      "name": "WithdrawalTooEarly",
      "type": "error"
    },
    {
      "inputs": [],
      "name": "WithdrawalTooLate",
      "type": "error"
    },
    {
      "anonymous": false,
      "inputs": [
        {
          "indexed": false,
          "internalType": "address",
          "name": "account",
          "type": "address"
        }
      ],
      "name": "Paused",
      "type": "event"
    },
    {
      "anonymous": false,
      "inputs": [
        {
          "indexed": true,
          "internalType": "bytes32",
          "name": "role",
          "type": "bytes32"
        },
        {
          "indexed": true,
          "internalType": "bytes32",
          "name": "previousAdminRole",
          "type": "bytes32"
        },
        {
          "indexed": true,
          "internalType": "bytes32",
          "name": "newAdminRole",
          "type": "bytes32"
        }
      ],
      "name": "RoleAdminChanged",
      "type": "event"
    },
    {
      "anonymous": false,
      "inputs": [
        {
          "indexed": true,
          "internalType": "bytes32",
          "name": "role",
          "type": "bytes32"
        },
        {
          "indexed": true,
          "internalType": "address",
          "name": "account",
          "type": "address"
        },
        {
          "indexed": true,
          "internalType": "address",
          "name": "sender",
          "type": "address"
        }
      ],
      "name": "RoleGranted",
      "type": "event"
    },
    {
      "anonymous": false,
      "inputs": [
        {
          "indexed": true,
          "internalType": "bytes32",
          "name": "role",
          "type": "bytes32"
        },
        {
          "indexed": true,
          "internalType": "address",
          "name": "account",
          "type": "address"
        },
        {
          "indexed": true,
          "internalType": "address",
          "name": "sender",
          "type": "address"
        }
      ],
      "name": "RoleRevoked",
      "type": "event"
    },
    {
      "anonymous": false,
      "inputs": [
        {
          "indexed": false,
          "internalType": "address",
          "name": "account",
          "type": "address"
        }
      ],
      "name": "Unpaused",
      "type": "event"
    },
    {
      "anonymous": false,
      "inputs": [
        {
          "indexed": true,
          "internalType": "address",
          "name": "walletAddress",
          "type": "address"
        },
        {
          "indexed": true,
          "internalType": "bytes16",
          "name": "receiptId",
          "type": "bytes16"
        },
        {
          "indexed": false,
          "internalType": "uint256",
          "name": "amount",
          "type": "uint256"
        }
      ],
      "name": "WithdrawalPaidOut",
      "type": "event"
    },
    {
      "stateMutability": "payable",
      "type": "fallback"
    },
    {
      "inputs": [],
      "name": "DEFAULT_ADMIN_ROLE",
      "outputs": [
        {
          "internalType": "bytes32",
          "name": "",
          "type": "bytes32"
        }
      ],
      "stateMutability": "view",
      "type": "function"
    },
    {
      "inputs": [],
      "name": "authorizedSigner",
      "outputs": [
        {
          "internalType": "address",
          "name": "",
          "type": "address"
        }
      ],
      "stateMutability": "view",
      "type": "function"
    },
    {
      "inputs": [
        {
          "internalType": "bytes16[]",
          "name": "receiptIds",
          "type": "bytes16[]"
        }
      ],
      "name": "batchBlocklistReceipt",
      "outputs": [],
      "stateMutability": "nonpayable",
      "type": "function"
    },
    {
      "inputs": [
        {
          "internalType": "bytes16[]",
          "name": "receiptIds",
          "type": "bytes16[]"
        },
        {
          "internalType": "uint256[]",
          "name": "amounts",
          "type": "uint256[]"
        },
        {
          "internalType": "uint256[]",
          "name": "validFroms",
          "type": "uint256[]"
        },
        {
          "internalType": "uint256[]",
          "name": "validTos",
          "type": "uint256[]"
        },
        {
          "internalType": "bytes[]",
          "name": "signatures",
          "type": "bytes[]"
        }
      ],
      "name": "batchWithdrawWithReceipts",
      "outputs": [],
      "stateMutability": "nonpayable",
      "type": "function"
    },
    {
      "inputs": [
        {
          "internalType": "bytes16",
          "name": "receiptId",
          "type": "bytes16"
        }
      ],
      "name": "blocklistReceipt",
      "outputs": [],
      "stateMutability": "nonpayable",
      "type": "function"
    },
    {
      "inputs": [
        {
          "internalType": "bytes32",
          "name": "role",
          "type": "bytes32"
        }
      ],
      "name": "getRoleAdmin",
      "outputs": [
        {
          "internalType": "bytes32",
          "name": "",
          "type": "bytes32"
        }
      ],
      "stateMutability": "view",
      "type": "function"
    },
    {
      "inputs": [
        {
          "internalType": "bytes32",
          "name": "role",
          "type": "bytes32"
        },
        {
          "internalType": "address",
          "name": "account",
          "type": "address"
        }
      ],
      "name": "grantRole",
      "outputs": [],
      "stateMutability": "nonpayable",
      "type": "function"
    },
    {
      "inputs": [
        {
          "internalType": "bytes32",
          "name": "role",
          "type": "bytes32"
        },
        {
          "internalType": "address",
          "name": "account",
          "type": "address"
        }
      ],
      "name": "hasRole",
      "outputs": [
        {
          "internalType": "bool",
          "name": "",
          "type": "bool"
        }
      ],
      "stateMutability": "view",
      "type": "function"
    },
    {
      "inputs": [
        {
          "internalType": "bytes16",
          "name": "receiptId",
          "type": "bytes16"
        }
      ],
      "name": "paidOutWithdrawals",
      "outputs": [
        {
          "internalType": "bool",
          "name": "paidOut",
          "type": "bool"
        }
      ],
      "stateMutability": "view",
      "type": "function"
    },
    {
      "inputs": [],
      "name": "pause",
      "outputs": [],
      "stateMutability": "nonpayable",
      "type": "function"
    },
    {
      "inputs": [],
      "name": "paused",
      "outputs": [
        {
          "internalType": "bool",
          "name": "",
          "type": "bool"
        }
      ],
      "stateMutability": "view",
      "type": "function"
    },
    {
      "inputs": [],
      "name": "payoutToken",
      "outputs": [
        {
          "internalType": "address",
          "name": "",
          "type": "address"
        }
      ],
      "stateMutability": "view",
      "type": "function"
    },
    {
      "inputs": [],
      "name": "payoutTreasury",
      "outputs": [
        {
          "internalType": "address",
          "name": "",
          "type": "address"
        }
      ],
      "stateMutability": "view",
      "type": "function"
    },
    {
      "inputs": [
        {
          "internalType": "bytes32",
          "name": "role",
          "type": "bytes32"
        },
        {
          "internalType": "address",
          "name": "callerConfirmation",
          "type": "address"
        }
      ],
      "name": "renounceRole",
      "outputs": [],
      "stateMutability": "nonpayable",
      "type": "function"
    },
    {
      "inputs": [
        {
          "internalType": "bytes32",
          "name": "role",
          "type": "bytes32"
        },
        {
          "internalType": "address",
          "name": "account",
          "type": "address"
        }
      ],
      "name": "revokeRole",
      "outputs": [],
      "stateMutability": "nonpayable",
      "type": "function"
    },
    {
      "inputs": [
        {
          "internalType": "address",
          "name": "_authorizedSigner",
          "type": "address"
        }
      ],
      "name": "setAuthorizedSigner",
      "outputs": [],
      "stateMutability": "nonpayable",
      "type": "function"
    },
    {
      "inputs": [
        {
          "internalType": "address",
          "name": "_payoutToken",
          "type": "address"
        }
      ],
      "name": "setPayoutToken",
      "outputs": [],
      "stateMutability": "nonpayable",
      "type": "function"
    },
    {
      "inputs": [
        {
          "internalType": "address",
          "name": "_payoutTreasury",
          "type": "address"
        }
      ],
      "name": "setPayoutTreasury",
      "outputs": [],
      "stateMutability": "nonpayable",
      "type": "function"
    },
    {
      "inputs": [
        {
          "internalType": "bytes4",
          "name": "interfaceId",
          "type": "bytes4"
        }
      ],
      "name": "supportsInterface",
      "outputs": [
        {
          "internalType": "bool",
          "name": "",
          "type": "bool"
        }
      ],
      "stateMutability": "view",
      "type": "function"
    },
    {
      "inputs": [],
      "name": "unpause",
      "outputs": [],
      "stateMutability": "nonpayable",
      "type": "function"
    },
    {
      "inputs": [
        {
          "internalType": "bytes16",
          "name": "receiptId",
          "type": "bytes16"
        },
        {
          "internalType": "uint256",
          "name": "amount",
          "type": "uint256"
        },
        {
          "internalType": "uint256",
          "name": "validFrom",
          "type": "uint256"
        },
        {
          "internalType": "uint256",
          "name": "validTo",
          "type": "uint256"
        },
        {
          "internalType": "bytes",
          "name": "signature",
          "type": "bytes"
        }
      ],
      "name": "withdrawWithReceipt",
      "outputs": [],
      "stateMutability": "nonpayable",
      "type": "function"
    },
    {
      "stateMutability": "payable",
      "type": "receive"
    }
  ],
  "bytecode": "0x60806040523480156200001157600080fd5b50604051620027583803806200275883398181016040528101906200003791906200031b565b600180819055506000600260006101000a81548160ff0219169083151502179055506200006e6000801b856200013c60201b60201c565b5082600260016101000a81548173ffffffffffffffffffffffffffffffffffffffff021916908373ffffffffffffffffffffffffffffffffffffffff16021790555081600360006101000a81548173ffffffffffffffffffffffffffffffffffffffff021916908373ffffffffffffffffffffffffffffffffffffffff16021790555080600460006101000a81548173ffffffffffffffffffffffffffffffffffffffff021916908373ffffffffffffffffffffffffffffffffffffffff160217905550505050506200038d565b60006200015083836200023f60201b60201c565b6200023457600160008085815260200190815260200160002060000160008473ffffffffffffffffffffffffffffffffffffffff1673ffffffffffffffffffffffffffffffffffffffff16815260200190815260200160002060006101000a81548160ff021916908315150217905550620001d0620002a960201b60201c565b73ffffffffffffffffffffffffffffffffffffffff168273ffffffffffffffffffffffffffffffffffffffff16847f2f8788117e7eff1d82e926ec794901d17c78024a50270940304540a733656f0d60405160405180910390a46001905062000239565b600090505b92915050565b600080600084815260200190815260200160002060000160008373ffffffffffffffffffffffffffffffffffffffff1673ffffffffffffffffffffffffffffffffffffffff16815260200190815260200160002060009054906101000a900460ff16905092915050565b600033905090565b600080fd5b600073ffffffffffffffffffffffffffffffffffffffff82169050919050565b6000620002e382620002b6565b9050919050565b620002f581620002d6565b81146200030157600080fd5b50565b6000815190506200031581620002ea565b92915050565b60008060008060808587031215620003385762000337620002b1565b5b6000620003488782880162000304565b94505060206200035b8782880162000304565b93505060406200036e8782880162000304565b9250506060620003818782880162000304565b91505092959194509250565b6123bb806200039d6000396000f3fe60806040526004361061012e5760003560e01c80638456cb59116100ab578063d279b0ca1161006f578063d279b0ca146103d4578063d547741f146103fd578063dbcdd1e014610426578063e34a7cf91461044f578063f02ae48f14610478578063ff874962146104a157610135565b80638456cb591461030157806391d14854146103185780639e20929114610355578063a217fddf1461037e578063c771909c146103a957610135565b80633a44ccc1116100f25780633a44ccc11461022e5780633f4ba83a146102575780634efa82b61461026e5780635c975abb146102995780637ed15dc9146102c457610135565b806301ffc9a71461013757806322ac08f314610174578063248a9ca31461019f5780632f2ff15d146101dc57806336568abe1461020557610135565b3661013557005b005b34801561014357600080fd5b5061015e60048036038101906101599190611839565b6104ca565b60405161016b9190611881565b60405180910390f35b34801561018057600080fd5b50610189610544565b60405161019691906118dd565b60405180910390f35b3480156101ab57600080fd5b506101c660048036038101906101c1919061192e565b61056a565b6040516101d3919061196a565b60405180910390f35b3480156101e857600080fd5b5061020360048036038101906101fe91906119b1565b610589565b005b34801561021157600080fd5b5061022c600480360381019061022791906119b1565b6105ab565b005b34801561023a57600080fd5b5061025560048036038101906102509190611bc5565b610626565b005b34801561026357600080fd5b5061026c6108f9565b005b34801561027a57600080fd5b50610283610911565b60405161029091906118dd565b60405180910390f35b3480156102a557600080fd5b506102ae610937565b6040516102bb9190611881565b60405180910390f35b3480156102d057600080fd5b506102eb60048036038101906102e69190611c5c565b61094e565b6040516102f89190611881565b60405180910390f35b34801561030d57600080fd5b5061031661096e565b005b34801561032457600080fd5b5061033f600480360381019061033a91906119b1565b610986565b60405161034c9190611881565b60405180910390f35b34801561036157600080fd5b5061037c60048036038101906103779190611ef5565b6109f0565b005b34801561038a57600080fd5b50610393610b04565b6040516103a0919061196a565b60405180910390f35b3480156103b557600080fd5b506103be610b0b565b6040516103cb91906118dd565b60405180910390f35b3480156103e057600080fd5b506103fb60048036038101906103f69190611ffc565b610b31565b005b34801561040957600080fd5b50610424600480360381019061041f91906119b1565b610b83565b005b34801561043257600080fd5b5061044d60048036038101906104489190611ffc565b610ba5565b005b34801561045b57600080fd5b5061047660048036038101906104719190611c5c565b610bf7565b005b34801561048457600080fd5b5061049f600480360381019061049a9190611ffc565b610c5a565b005b3480156104ad57600080fd5b506104c860048036038101906104c39190612029565b610cac565b005b60007f7965db0b000000000000000000000000000000000000000000000000000000007bffffffffffffffffffffffffffffffffffffffffffffffffffffffff1916827bffffffffffffffffffffffffffffffffffffffffffffffffffffffff1916148061053d575061053c82610d43565b5b9050919050565b600360009054906101000a900473ffffffffffffffffffffffffffffffffffffffff1681565b6000806000838152602001908152602001600020600101549050919050565b6105928261056a565b61059b81610dad565b6105a58383610dc1565b50505050565b6105b3610eb2565b73ffffffffffffffffffffffffffffffffffffffff168173ffffffffffffffffffffffffffffffffffffffff1614610617576040517f6697b23200000000000000000000000000000000000000000000000000000000815260040160405180910390fd5b6106218282610eba565b505050565b61062e610fac565b610636610fed565b6000339050600086828787876040516020016106569594939291906120fc565b60405160208183030381529060405280519060200120905061069b8184600260019054906101000a900473ffffffffffffffffffffffffffffffffffffffff16611033565b6106d1576040517f8baa579f00000000000000000000000000000000000000000000000000000000815260040160405180910390fd5b60056000886fffffffffffffffffffffffffffffffff19166fffffffffffffffffffffffffffffffff1916815260200190815260200160002060009054906101000a900460ff161561074f576040517f2c620a1400000000000000000000000000000000000000000000000000000000815260040160405180910390fd5b42851115610789576040517ff467161400000000000000000000000000000000000000000000000000000000815260040160405180910390fd5b428410156107c3576040517f75da9bff00000000000000000000000000000000000000000000000000000000815260040160405180910390fd5b600160056000896fffffffffffffffffffffffffffffffff19166fffffffffffffffffffffffffffffffff1916815260200190815260200160002060006101000a81548160ff021916908315150217905550610886600360009054906101000a900473ffffffffffffffffffffffffffffffffffffffff168388600460009054906101000a900473ffffffffffffffffffffffffffffffffffffffff1673ffffffffffffffffffffffffffffffffffffffff16611087909392919063ffffffff16565b866fffffffffffffffffffffffffffffffff19168273ffffffffffffffffffffffffffffffffffffffff167f3a58ffca4aeff153d7ac0bdf3ed899fd4dee507334ed1645b61e8797313dd16c886040516108e0919061216a565b60405180910390a350506108f2611109565b5050505050565b6000801b61090681610dad565b61090e611112565b50565b600460009054906101000a900473ffffffffffffffffffffffffffffffffffffffff1681565b6000600260009054906101000a900460ff16905090565b60056020528060005260406000206000915054906101000a900460ff1681565b6000801b61097b81610dad565b610983611175565b50565b600080600084815260200190815260200160002060000160008373ffffffffffffffffffffffffffffffffffffffff1673ffffffffffffffffffffffffffffffffffffffff16815260200190815260200160002060009054906101000a900460ff16905092915050565b83518551141580610a0357508251855114155b80610a1057508151855114155b80610a1d57508051855114155b15610a54576040517f87bb1e5800000000000000000000000000000000000000000000000000000000815260040160405180910390fd5b60005b8551811015610afc57610aef868281518110610a7657610a75612185565b5b6020026020010151868381518110610a9157610a90612185565b5b6020026020010151868481518110610aac57610aab612185565b5b6020026020010151868581518110610ac757610ac6612185565b5b6020026020010151868681518110610ae257610ae1612185565b5b6020026020010151610626565b8080600101915050610a57565b505050505050565b6000801b81565b600260019054906101000a900473ffffffffffffffffffffffffffffffffffffffff1681565b6000801b610b3e81610dad565b81600260016101000a81548173ffffffffffffffffffffffffffffffffffffffff021916908373ffffffffffffffffffffffffffffffffffffffff1602179055505050565b610b8c8261056a565b610b9581610dad565b610b9f8383610eba565b50505050565b6000801b610bb281610dad565b81600360006101000a81548173ffffffffffffffffffffffffffffffffffffffff021916908373ffffffffffffffffffffffffffffffffffffffff1602179055505050565b6000801b610c0481610dad565b600160056000846fffffffffffffffffffffffffffffffff19166fffffffffffffffffffffffffffffffff1916815260200190815260200160002060006101000a81548160ff0219169083151502179055505050565b6000801b610c6781610dad565b81600460006101000a81548173ffffffffffffffffffffffffffffffffffffffff021916908373ffffffffffffffffffffffffffffffffffffffff1602179055505050565b6000801b610cb981610dad565b60005b8251811015610d3e57600160056000858481518110610cde57610cdd612185565b5b60200260200101516fffffffffffffffffffffffffffffffff19166fffffffffffffffffffffffffffffffff1916815260200190815260200160002060006101000a81548160ff0219169083151502179055508080600101915050610cbc565b505050565b60007f01ffc9a7000000000000000000000000000000000000000000000000000000007bffffffffffffffffffffffffffffffffffffffffffffffffffffffff1916827bffffffffffffffffffffffffffffffffffffffffffffffffffffffff1916149050919050565b610dbe81610db9610eb2565b6111d8565b50565b6000610dcd8383610986565b610ea757600160008085815260200190815260200160002060000160008473ffffffffffffffffffffffffffffffffffffffff1673ffffffffffffffffffffffffffffffffffffffff16815260200190815260200160002060006101000a81548160ff021916908315150217905550610e44610eb2565b73ffffffffffffffffffffffffffffffffffffffff168273ffffffffffffffffffffffffffffffffffffffff16847f2f8788117e7eff1d82e926ec794901d17c78024a50270940304540a733656f0d60405160405180910390a460019050610eac565b600090505b92915050565b600033905090565b6000610ec68383610986565b15610fa157600080600085815260200190815260200160002060000160008473ffffffffffffffffffffffffffffffffffffffff1673ffffffffffffffffffffffffffffffffffffffff16815260200190815260200160002060006101000a81548160ff021916908315150217905550610f3e610eb2565b73ffffffffffffffffffffffffffffffffffffffff168273ffffffffffffffffffffffffffffffffffffffff16847ff6391f5c32d9c69d2a47ea670b442974b53935d1edc7fd64eb21e047a839171b60405160405180910390a460019050610fa6565b600090505b92915050565b610fb4610937565b15610feb576040517fd93c066500000000000000000000000000000000000000000000000000000000815260040160405180910390fd5b565b600260015403611029576040517f3ee5aeb500000000000000000000000000000000000000000000000000000000815260040160405180910390fd5b6002600181905550565b60008173ffffffffffffffffffffffffffffffffffffffff166110678461105987611229565b61125f90919063ffffffff16565b73ffffffffffffffffffffffffffffffffffffffff161490509392505050565b611103848573ffffffffffffffffffffffffffffffffffffffff166323b872dd8686866040516024016110bc939291906121b4565b604051602081830303815290604052915060e01b6020820180517bffffffffffffffffffffffffffffffffffffffffffffffffffffffff838183161783525050505061128b565b50505050565b60018081905550565b61111a611322565b6000600260006101000a81548160ff0219169083151502179055507f5db9ee0a495bf2e6ff9c91a7834c1ba4fdd244a5e8aa4e537bd38aeae4b073aa61115e610eb2565b60405161116b91906118dd565b60405180910390a1565b61117d610fac565b6001600260006101000a81548160ff0219169083151502179055507f62e78cea01bee320cd4e420270b5ea74000d11b0c9f74754ebdbfc544b05a2586111c1610eb2565b6040516111ce91906118dd565b60405180910390a1565b6111e28282610986565b6112255780826040517fe2517d3f00000000000000000000000000000000000000000000000000000000815260040161121c9291906121eb565b60405180910390fd5b5050565b60007f19457468657265756d205369676e6564204d6573736167653a0a33320000000060005281601c52603c6000209050919050565b60008060008061126f8686611362565b92509250925061127f82826113be565b82935050505092915050565b60006112b6828473ffffffffffffffffffffffffffffffffffffffff1661152290919063ffffffff16565b905060008151141580156112db5750808060200190518101906112d99190612240565b155b1561131d57826040517f5274afe700000000000000000000000000000000000000000000000000000000815260040161131491906118dd565b60405180910390fd5b505050565b61132a610937565b611360576040517f8dfc202b00000000000000000000000000000000000000000000000000000000815260040160405180910390fd5b565b600080600060418451036113a75760008060006020870151925060408701519150606087015160001a905061139988828585611538565b9550955095505050506113b7565b60006002855160001b9250925092505b9250925092565b600060038111156113d2576113d161226d565b5b8260038111156113e5576113e461226d565b5b031561151e57600160038111156113ff576113fe61226d565b5b8260038111156114125761141161226d565b5b03611449576040517ff645eedf00000000000000000000000000000000000000000000000000000000815260040160405180910390fd5b6002600381111561145d5761145c61226d565b5b8260038111156114705761146f61226d565b5b036114b5578060001c6040517ffce698f70000000000000000000000000000000000000000000000000000000081526004016114ac919061216a565b60405180910390fd5b6003808111156114c8576114c761226d565b5b8260038111156114db576114da61226d565b5b0361151d57806040517fd78bce0c000000000000000000000000000000000000000000000000000000008152600401611514919061196a565b60405180910390fd5b5b5050565b60606115308383600061162c565b905092915050565b60008060007f7fffffffffffffffffffffffffffffff5d576e7357a4501ddfe92f46681b20a08460001c1115611578576000600385925092509250611622565b60006001888888886040516000815260200160405260405161159d94939291906122b8565b6020604051602081039080840390855afa1580156115bf573d6000803e3d6000fd5b505050602060405103519050600073ffffffffffffffffffffffffffffffffffffffff168173ffffffffffffffffffffffffffffffffffffffff160361161357600060016000801b93509350935050611622565b8060008060001b935093509350505b9450945094915050565b60608147101561167357306040517fcd78605900000000000000000000000000000000000000000000000000000000815260040161166a91906118dd565b60405180910390fd5b6000808573ffffffffffffffffffffffffffffffffffffffff16848660405161169c919061236e565b60006040518083038185875af1925050503d80600081146116d9576040519150601f19603f3d011682016040523d82523d6000602084013e6116de565b606091505b50915091506116ee8683836116f9565b925050509392505050565b60608261170e5761170982611788565b611780565b60008251148015611736575060008473ffffffffffffffffffffffffffffffffffffffff163b145b1561177857836040517f9996b31500000000000000000000000000000000000000000000000000000000815260040161176f91906118dd565b60405180910390fd5b819050611781565b5b9392505050565b60008151111561179b5780518082602001fd5b6040517f1425ea4200000000000000000000000000000000000000000000000000000000815260040160405180910390fd5b6000604051905090565b600080fd5b600080fd5b60007fffffffff0000000000000000000000000000000000000000000000000000000082169050919050565b611816816117e1565b811461182157600080fd5b50565b6000813590506118338161180d565b92915050565b60006020828403121561184f5761184e6117d7565b5b600061185d84828501611824565b91505092915050565b60008115159050919050565b61187b81611866565b82525050565b60006020820190506118966000830184611872565b92915050565b600073ffffffffffffffffffffffffffffffffffffffff82169050919050565b60006118c78261189c565b9050919050565b6118d7816118bc565b82525050565b60006020820190506118f260008301846118ce565b92915050565b6000819050919050565b61190b816118f8565b811461191657600080fd5b50565b60008135905061192881611902565b92915050565b600060208284031215611944576119436117d7565b5b600061195284828501611919565b91505092915050565b611964816118f8565b82525050565b600060208201905061197f600083018461195b565b92915050565b61198e816118bc565b811461199957600080fd5b50565b6000813590506119ab81611985565b92915050565b600080604083850312156119c8576119c76117d7565b5b60006119d685828601611919565b92505060206119e78582860161199c565b9150509250929050565b60007fffffffffffffffffffffffffffffffff0000000000000000000000000000000082169050919050565b611a26816119f1565b8114611a3157600080fd5b50565b600081359050611a4381611a1d565b92915050565b6000819050919050565b611a5c81611a49565b8114611a6757600080fd5b50565b600081359050611a7981611a53565b92915050565b600080fd5b600080fd5b6000601f19601f8301169050919050565b7f4e487b7100000000000000000000000000000000000000000000000000000000600052604160045260246000fd5b611ad282611a89565b810181811067ffffffffffffffff82111715611af157611af0611a9a565b5b80604052505050565b6000611b046117cd565b9050611b108282611ac9565b919050565b600067ffffffffffffffff821115611b3057611b2f611a9a565b5b611b3982611a89565b9050602081019050919050565b82818337600083830152505050565b6000611b68611b6384611b15565b611afa565b905082815260208101848484011115611b8457611b83611a84565b5b611b8f848285611b46565b509392505050565b600082601f830112611bac57611bab611a7f565b5b8135611bbc848260208601611b55565b91505092915050565b600080600080600060a08688031215611be157611be06117d7565b5b6000611bef88828901611a34565b9550506020611c0088828901611a6a565b9450506040611c1188828901611a6a565b9350506060611c2288828901611a6a565b925050608086013567ffffffffffffffff811115611c4357611c426117dc565b5b611c4f88828901611b97565b9150509295509295909350565b600060208284031215611c7257611c716117d7565b5b6000611c8084828501611a34565b91505092915050565b600067ffffffffffffffff821115611ca457611ca3611a9a565b5b602082029050602081019050919050565b600080fd5b6000611ccd611cc884611c89565b611afa565b90508083825260208201905060208402830185811115611cf057611cef611cb5565b5b835b81811015611d195780611d058882611a34565b845260208401935050602081019050611cf2565b5050509392505050565b600082601f830112611d3857611d37611a7f565b5b8135611d48848260208601611cba565b91505092915050565b600067ffffffffffffffff821115611d6c57611d6b611a9a565b5b602082029050602081019050919050565b6000611d90611d8b84611d51565b611afa565b90508083825260208201905060208402830185811115611db357611db2611cb5565b5b835b81811015611ddc5780611dc88882611a6a565b845260208401935050602081019050611db5565b5050509392505050565b600082601f830112611dfb57611dfa611a7f565b5b8135611e0b848260208601611d7d565b91505092915050565b600067ffffffffffffffff821115611e2f57611e2e611a9a565b5b602082029050602081019050919050565b6000611e53611e4e84611e14565b611afa565b90508083825260208201905060208402830185811115611e7657611e75611cb5565b5b835b81811015611ebd57803567ffffffffffffffff811115611e9b57611e9a611a7f565b5b808601611ea88982611b97565b85526020850194505050602081019050611e78565b5050509392505050565b600082601f830112611edc57611edb611a7f565b5b8135611eec848260208601611e40565b91505092915050565b600080600080600060a08688031215611f1157611f106117d7565b5b600086013567ffffffffffffffff811115611f2f57611f2e6117dc565b5b611f3b88828901611d23565b955050602086013567ffffffffffffffff811115611f5c57611f5b6117dc565b5b611f6888828901611de6565b945050604086013567ffffffffffffffff811115611f8957611f886117dc565b5b611f9588828901611de6565b935050606086013567ffffffffffffffff811115611fb657611fb56117dc565b5b611fc288828901611de6565b925050608086013567ffffffffffffffff811115611fe357611fe26117dc565b5b611fef88828901611ec7565b9150509295509295909350565b600060208284031215612012576120116117d7565b5b60006120208482850161199c565b91505092915050565b60006020828403121561203f5761203e6117d7565b5b600082013567ffffffffffffffff81111561205d5761205c6117dc565b5b61206984828501611d23565b91505092915050565b6000819050919050565b61208d612088826119f1565b612072565b82525050565b60008160601b9050919050565b60006120ab82612093565b9050919050565b60006120bd826120a0565b9050919050565b6120d56120d0826118bc565b6120b2565b82525050565b6000819050919050565b6120f66120f182611a49565b6120db565b82525050565b6000612108828861207c565b60108201915061211882876120c4565b60148201915061212882866120e5565b60208201915061213882856120e5565b60208201915061214882846120e5565b6020820191508190509695505050505050565b61216481611a49565b82525050565b600060208201905061217f600083018461215b565b92915050565b7f4e487b7100000000000000000000000000000000000000000000000000000000600052603260045260246000fd5b60006060820190506121c960008301866118ce565b6121d660208301856118ce565b6121e3604083018461215b565b949350505050565b600060408201905061220060008301856118ce565b61220d602083018461195b565b9392505050565b61221d81611866565b811461222857600080fd5b50565b60008151905061223a81612214565b92915050565b600060208284031215612256576122556117d7565b5b60006122648482850161222b565b91505092915050565b7f4e487b7100000000000000000000000000000000000000000000000000000000600052602160045260246000fd5b600060ff82169050919050565b6122b28161229c565b82525050565b60006080820190506122cd600083018761195b565b6122da60208301866122a9565b6122e7604083018561195b565b6122f4606083018461195b565b95945050505050565b600081519050919050565b600081905092915050565b60005b83811015612331578082015181840152602081019050612316565b60008484015250505050565b6000612348826122fd565b6123528185612308565b9350612362818560208601612313565b80840191505092915050565b600061237a828461233d565b91508190509291505056fea2646970667358221220dd4358e98e0db78b39bfacc97d0b3d8467a91fceb0bfba767eaa36194f54680064736f6c63430008180033",
  "linkReferences": {},
  "deployedLinkReferences": {}
}